:020000040800F2
:10000000B034002029020008130700086906000820
:10001000A9060008E3040008A3530008000000003C
:10002000000000000000000000000000F14E000889
:100030008D050008000000005F040008095000085A
:10004000430200084302000843020008430200087C
:10005000430200084302000843020008430200086C
:10006000430200084302000843020008430200085C
:10007000430200084302000843020008430200084C
:10008000430200084302000843020008430200083C
:10009000430200084302000843020008430200082C
:1000A000430200084302000843020008430200081C
:1000B000430200084302000843020008430200080C
:1000C00043020008430200084302000843020008FC
:1000D000430200086D510008430200084302000873
:1000E00043020008430200084302000843020008DC
:1000F00043020008430200084302000843020008CC
:1001000043020008430200084302000843020008BB
:1001100043020008430200084302000843020008AB
:10012000430200084302000843020008430200089B
:10013000430200084302000843020008430200088B
:10014000430200084302000843020008430200087B
:10015000430200084302000843020008430200086B
:10016000430200084302000843020008430200085B
:10017000430200084302000843020008430200084B
:10018000430200084302000800F002F800F03CF8C7
:100190000AA090E8000C82448344AAF10107DA45E2
:1001A00001D100F031F8AFF2090EBAE80F0013F0F8
:1001B000010F18BFFB1A43F001031847D057000086
:1001C000F0570000103A24BF78C878C1FAD8520717
:1001D00024BF30C830C144BF04680C6070470000C1
:1001E0000023002400250026103A28BF78C1FBD840
:1001F000520728BF30C148BF0B6070471FB505F0DC
:10020000B7FA1FBD10B510BD00F0C8F81146FFF7D2
:10021000F5FF05F011F900F0FAF803B4FFF7F2FF6B
:1002200003BC05F0C0F800000948804709480047B2
:10023000FEE7FEE7FEE7FEE7FEE7FEE7FEE7FEE796
:10024000FEE7FEE704480549054A064B70470000F3
:100250002550000889010008B02E0020B03400208D
:10026000B0300020B030002072B6704762B67047E0
:10027000EFF3108072B6704780F31088704730BF7C
:10028000704720BF7047B0FA80F0704790FAA0F036
:10029000B0FA80F0704790FAA0F070477047000005
:1002A0000FB4044910B503AA029800F049F810BC35
:1002B0005DF814FB140000204FF0013C50F8042BB3
:1002C00051F8043B9A4221D1A2EB0C03934313EA69
:1002D000CC1317D150F8042B51F8043B9A4215D196
:1002E000A2EB0C03934313EACC130BD150F8042B6D
:1002F00051F8043B9A4209D1A2EB0C03934313EA51
:10030000CC13DBD04FF00000704700BFD01A01BA09
:10031000B1FA81F101F0180122FA01F0CB40C1F1EC
:100320002001DBB2C0B2C01A2CFA01F3D11A9143FA
:1003300011EAC311E6D170477047704770477047A4
:10034000074B70B50D467B4400F011F80446284673
:1003500000F020F810B14FF0FF3070BD204670BDA6
:10036000D350000001694A1C02610878704700B54B
:100370008FB0CDE901310021059105497944CDE9DE
:1003800003101146684600F02EF80FB000BD0000C3
:10039000E5FFFFFF007B00F080007047754600F02E
:1003A0003FF8AE4605006946534620F007008546F3
:1003B00018B020B5FFF746FFBDE820404FF000061B
:1003C0004FF000074FF000084FF0000B21F007013D
:1003D000AC46ACE8C009ACE8C009ACE8C009ACE880
:1003E000C0098D4670472DE9F04106460024D6E944
:1003F0000170F5688046304603E04146B847641C0A
:100400003046A8470028F8D12046BDE8F08110B555
:100410000446AFF300802046BDE81040FFF7FDBE64
:1004200000487047502E002022484FF6FF7101709F
:10043000002080F309882048016881F308881F485C
:100440004FF08051016062B6FEE71C484FF08051CA
:100450000160704719484FF080510160704772B6D3
:10046000EFF3098050B11EF0100F08BF20ED108A85
:10047000203880E8F00F12490968086000B511487B
:1004800080475DF804EB104810490A7802700C4868
:100490000F490A680260106890E8F00F20301EF0E3
:1004A000100F08BFB0EC108A80F309884EF0040EDC
:1004B00062B6704722ED00E0F000002004ED00E09D
:1004C000E8000020311D00087600002077000020A1
:1004D000EC0000201FB5684604F096FC019804B0BB
:1004E00010BD00BFFEE710B500F020F800F01AF8CC
:1004F00010BD000010B5002400BF00BFFFF7B8FE1C
:10050000044600BF00BF1021054800F0CFF800BF2F
:1005100000BF2046FFF7B0FE00BF00BF10BD0000C7
:10052000D012002010B5FFF7E5FF10BD10B5002078
:100530000249086000F00AF810BD00001C0000200D
:1005400001490860704700001C00002010B5FFF74B
:10055000C1FF04460848006840F080700649086002
:100560000020064948600846006840F00100086025
:100570002046FFF7E5FF10BDFCED00E0001000E0B5
:100580000149486870470000001000E07047F0B56E
:100590000A4600210023002400BF3DE0012505FAA2
:1005A00001F3156805EA03049C4234D105684F0045
:1005B0000326BE40B543056015794E00B540066878
:1005C000354305601579012D02D01579022D16D11C
:1005D00085684F000326BE40B543856055794E00BF
:1005E000B540866835438560456801268E40B54331
:1005F0004560456896798E40B6B235434560C5681A
:100600004F000326BE40B543C560D5794E00B540C6
:10061000C6683543C560491C1029BFD3F0BDF0B58D
:10062000002300244D07ED0E02FA05F3CE1000F171
:10063000200555F826504E07F70E0F26BE40B5434D
:10064000CF1000F1200646F82750CE1000F120050B
:1006500055F8265045EA0304CE1000F1200545F870
:100660002640F0BD0183704700BFFEE71CB50121A5
:10067000022004F0A9FB0220009001208DF8040064
:1006800000208DF8060003208DF8050001208DF86C
:10069000070069460348FFF77AFF02210148FFF788
:1006A000E1FF1CBD0004024000BFFEE730B5054677
:1006B0000C4622460021284600F001F830BD2DE905
:1006C000F04105460B4694460027002402E03F0215
:1006D0001F43641C042CFAD3604605F00306294628
:1006E00046B1344603E001F8013B401E641C08B1EA
:1006F000042CF8D30A4601E080C2001F0428FBD274
:10070000114602E001F8013B401E0028FAD1BDE885
:10071000F081704770B5002100230F22C4781CB30C
:10072000174C246804F4E064C4F5E064C4F30721C2
:10073000C1F10404E3B20A4144789C40E1B28478F8
:10074000144021430C07210E0E4C057861550478A6
:1007500004F01F050124AC4005786D11AD0005F1D2
:10076000E025C5F8004109E0047804F01F050124E4
:10077000AC40054D0678761145F8264070BD000066
:100780000CED00E000E400E080E100E002490143FC
:10079000024A1160704700000000FA050CED00E00D
:1007A0001548164816481748174818481848194851
:1007B00019481A481A481B481B481C481C481D4821
:1007C0001D481E481E481F481F48204820482148F1
:1007D00021482248224823482348244824482548C1
:1007E0002548264826482748274828482848294891
:1007F000294800BF704700001C5800087C570008BB
:100800008057000884570008885700088C57000854
:100810009057000894570008985700089C57000804
:10082000A0570008A4570008A8570008AC570008B4
:10083000B0570008B4570008B8570008BC57000864
:10084000C0570008C4570008C8570008CC57000814
:10085000D0570008D4570008D8570008DC570008C4
:10086000E0570008E4570008E8570008EC57000874
:10087000F0570008F4570008F8570008FC57000824
:100880000058000804580008085800080C580008D0
:1008900010580008145800081858000810B50348EC
:1008A000006810B101480068804710BD3400002086
:1008B00070B5044600F0C2F8002048490870484965
:1008C0000870484908704849086048490860484924
:1008D0000870484908704849087048490860484904
:1008E00008604849086048490870484800680A217B
:1008F000B0FBF1F0464908604648006858B14648E8
:10090000056845B14348066803E0761E002028606C
:100910002D1D002EF9D10020404908604049086093
:100920004049086040490860404908604049086003
:10093000404908604049087002F066FB02F046FC3E
:10094000204601F0C1FC208800B170BD204602F0B5
:10095000A3F8208800B1F8E7204602F0C5F8208807
:1009600000B1F2E7204602F0C5F9208800B1ECE7BB
:10097000204602F079FB208800B1E6E7204602F02D
:1009800099FD208800B1E0E7204603F0BBF82088FD
:1009900000B1DAE7204601F0EBFF208800B1D4E790
:1009A000204601F003FE208800B1CEE7204604F087
:1009B00019F8208800B1C8E7204602F0E7FF208838
:1009C00000B1C2E7204604F069F8208800B1BCE716
:1009D00001F0A2FBFFF7E4FE00BFB6E748000020ED
:1009E0004900002090000020E8000020EC000020DA
:1009F000760000207700002078000020840000208E
:100A0000880000208C00002098000020DC5700089F
:100A100094000020AC570008A857000828000020C8
:100A20002C0000203000002034000020380000207E
:100A30003C00002040000020C6000020064800685E
:100A40000649096800EB810005490860084600680E
:100A500020F0070008607047A8570008AC5700084E
:100A6000F000002008480078012800D070470748AF
:100A70000078FA2800DBF9E704480078401C0349B5
:100A8000087000BFF2E70000490000204800002085
:100A900010B500242D480078012800D010BD00BFFB
:100AA000FFF7E6FB044600BF2948007828B900BFDD
:100AB0002046FFF7E1FB00BFF0E725480078401E25
:100AC0002349087008460078002805DD00BF20464D
:100AD000FFF7D2FB00BFE1E71E480078002805DDE4
:100AE00000BF2046FFF7C8FB00BFD7E702F078FA47
:100AF000194908700846007800EB4000174951F882
:100B000020001749086008460068164909688842AD
:100B100005D100BF2046FFF7AFFB00BFBEE710487E
:100B20000068D0F89000401C0D490968C1F8900099
:100B30000D480068401C0C490860FFF78BFC00BFA3
:100B40002046FFF799FB00BF00BFA7E74900002040
:100B50004800002090000020770000200429002099
:100B6000EC000020E8000020BC00002010B50024AC
:100B70001F480078002800DD10BD1E4800780028BE
:100B800000DDF9E700BFFFF773FB044600BF02F08A
:100B900027FA194908700846007800EB4000174909
:100BA00051F8200016490860084600681549096890
:100BB000884205D100BF2046FFF75EFB00BFDBE7A0
:100BC0000F480068D0F89000401C0D490968C1F832
:100BD00090000D480068401C0B490860FFF735FC89
:100BE00000BF2046FFF748FB00BF00BFC4E700007E
:100BF00048000020900000207700002004290020F9
:100C0000EC000020E8000020BC00002070B5044685
:100C1000002518480078002803DD46F66250208041
:100C200070BD15480078012803D045F68960208002
:100C3000F6E712480078FA2803DB45F20920208005
:100C4000EEE700BF00BFFFF713FB054600BF00BF84
:100C50000A480078401C0949087002F097FB00BF61
:100C600000BF2846FFF708FB00BF00BF0020208020
:100C700000BFD5E748000020490000209000002078
:100C80002DE9F04105460C461646002700BF00BF7F
:100C9000FFF7EEFA074600BF00BF012D03D000208A
:100CA0000D49087002E001200B49087014B10B488F
:100CB000046006E00A4800680A21B0FBF1F0074929
:100CC000086000BF00BF3846FFF7D6FA00BF00BF7C
:100CD00000203080BDE8F0819800002094000020C2
:100CE000DC57000870B5044600252048007800282D
:100CF00003DD46F66550208070BD1D480078012850
:100D000003D045F689602080F6E71A48007818B9C4
:100D100046F664502080EFE700BF00BFFFF7A8FA57
:100D2000054600BF00BF13480078401E11490870F7
:100D30000846007800280ADD00BF00BF2846FFF7FC
:100D40009BFA00BF00BF46F663502080D4E702F054
:100D50002BFB00BF00BF2846FFF78EFA00BF00BF85
:100D6000FFF704FF0020208000BFC5E748000020F7
:100D7000490000209000002010B504461248007879
:100D8000E8B902F02DF911490870084600781049B9
:100D900008700E48007800EB40000E4951F8200022
:100DA0000D490860084600680C49086001200649A2
:100DB0000870FFF739FB43F69920208002E045F6E2
:100DC0008A60208010BD00004900002077000020CC
:100DD0007600002004290020EC000020E80000201C
:100DE0002DE9F04107464FF0000800BF00BFFFF7B4
:100DF0003FFA804600BF00BF00203D4908603D49E2
:100E000008803D4908803D4908603D4908603D49EA
:100E100008603D4908603D49088100BF00BF404669
:100E2000FFF72AFA00BF00BF00BF00BFFFF720FA9C
:100E3000804600BF00BF3648046800BF00BF404680
:100E4000FFF71AFA00BF00BF21E000BF00BFFFF7A5
:100E50000FFA804600BF00BF00207834E0632060B6
:100E60002063A061A082E0826062A062FFF788FB3D
:100E70002062783C04F164060020B081D4F8BC40C4
:100E800000BF00BF4046FFF7F7F900BF00BF002CCE
:100E9000DBD100BF00BFFFF7EBF9804600BF00BF0A
:100EA0001C48056800BF00BF4046FFF7E5F900BFDA
:100EB00000BF12E000BF00BFFFF7DAF9804600BFB5
:100EC00000BF05F120060020B081AD6900BF00BF62
:100ED0004046FFF7D1F900BF00BF002DEAD103F073
:100EE0005DFC03F0D7FE00203880BDE8F0810000F3
:100EF0005C00002056000020A6000020B800002062
:100F0000CC000020D800002088000020F828002015
:100F1000C00000207C000020F8B504460026694689
:100F2000324800F0D5FEBDF8000018B1BDF8000051
:100F30002080F8BD6A460021022000F03DFFBDF888
:100F4000000018B1BDF800002080F2E700BF00BF2C
:100F5000FFF78EF9064600BF00BF00202449086055
:100F600000BF00BF3046FFF787F900BF00BF002574
:100F70002048006820490968884205D91D48006852
:100F80001D490968B0FBF1F525B91A4800680A2126
:100F9000B0FBF1F56A460021284600F00DFF6946D6
:100FA000124800F0A9FBBDF8000018B1BDF8000020
:100FB0002080BEE700BF00BFFFF75AF9064600BF1A
:100FC00000BF00200D490860094800680C4908600E
:100FD00001200C49087000BF00BF3046FFF74CF9F4
:100FE00000BF00BF0020208000BFA2E78C2D0020A2
:100FF000A8000020DC570008C4570008B8000020F3
:10100000AC000020B400002010B50348006810B107
:1010100001480068804710BD380000202DE9FF4FCF
:1010200087B004469046DDE91BA5DDE91496179FBD
:101030000020039087480078002805DD47F24A1019
:1010400028800BB0BDE8F08F1CB947F2AD102880A6
:10105000F7E7B8F1000F03D147F24F102880F0E70F
:101060001EB946F62F602880EBE77B480068874270
:1010700003D246F630602880E3E71698B84203D3DF
:1010800046F631602880DCE7B9F1400F03D346F221
:1010900073202880D5E7B9F1000F06D16F4884424C
:1010A00003D046F273202880CBE7B9F13F0F06D179
:1010B0006B48844203D046F273202880C1E7204663
:1010C00002F030FD002028800AF0010090B10AF003
:1010D000020078B105960020069008E000210598EE
:1010E00001600598001D05900698401C0690069822
:1010F000B842F3D3169806EB80000490CDE9007A4D
:1011000032464046049B0A9900F0B4FC0590C4F8AE
:1011100028800A98E0620898206284F83790059841
:1011200020600498A06019986065199818B94D4816
:101130000068A06501E01998A0651A986060666271
:10114000A763A4F83CA04FF0000B08E0002104F1D5
:101150007C0040F82B100BF1010000F0FF0BBBF1FD
:10116000000FF3D004F16400189901F03DFD204612
:1011700000F082F800BF00BF00BFFFF779F80390CE
:1011800000BF00BF38480078401C3749087000BFD6
:1011900000BF0398FFF770F800BF00BF00BF94F8CE
:1011A000370001F03DFF204602F058F8204602F0DB
:1011B0006FFC2E480088401C2C4908802C48007881
:1011C00001282DD000BF00BF00BFFFF751F80390EA
:1011D00000BF00BF24480078401E2349087008461D
:1011E0000078A0B923480088002809DD00BF00BFAF
:1011F0000398FFF741F800BF00BF02F09DF80DE033
:1012000000BF00BF0398FFF737F800BF06E000BF3C
:1012100000BF0398FFF730F800BF00BF00BF10E722
:1012200000BF00BF00BFFFF723F8039000BF00BF5F
:101230000D480078401E0C49087000BF00BF03989D
:10124000FFF71AF800BF00BF00BFFFF78FFC00BF19
:10125000F7E6000048000020D85700083428002096
:10126000702700209400002090000020C40000207F
:10127000490000205400002010B5044603480068CF
:1012800018B1204601490968884710BD2800002090
:1012900070B504460D46002667480078002803DD37
:1012A00047F24E10288070BD6448844203D147F253
:1012B0004C102880F7E76248844203D147F24D1072
:1012C0002880F0E77CB900BF00BFFEF7D1FF0646DB
:1012D00000BF00BF5B48046800BF00BF3046FEF798
:1012E000CBFF00BF00BF00BF00BF00BFFEF7C0FFC5
:1012F000064600BF00BF54480078401C52490870A1
:1013000000BF00BF3046FEF7B7FF00BF00BF00BF01
:1013100094F8360008282DD2DFE800F004090E10FA
:10132000080A0F11204601F0D9FF54E053E000BF36
:10133000204603F017FA4EE000BF00BF00BF204672
:1013400003F010FA94F83400082810D2DFE800F017
:1013500004070508090A0B0600BF00BF08E000BF2C
:1013600000BF00BF00BF204601F08BFD00E000BFC2
:1013700000BF30E000BF00BF00BFFEF779FF0646A8
:1013800000BF00BF30480078401E2F490870084653
:101390000078A0B92D480088002809DD00BF00BFF3
:1013A0003046FEF769FF00BF00BF01F0C5FF0DE04A
:1013B00000BF00BF3046FEF75FFF00BF06E000BF82
:1013C00000BF3046FEF758FF00BF00BF00BF46F623
:1013D0002D60288067E700BF04F1640001F0AEFBD8
:1013E000204600F037F8204602F06AFB18480088D3
:1013F000401E17490880204602F094FBFF2084F825
:10140000360000BF00BF00BFFEF732FF064600BF38
:1014100000BF0D480078401E0B49087000BF00BF98
:101420003046FEF729FF00BF00BF00BF0020288024
:10143000FFF79CFB00BF36E7480000207027002024
:1014400034280020E80000209000002054000020F4
:10145000C400002010B504460348006818B12046B7
:1014600001490968884710BD2C0000202DE9F05F74
:1014700080460F4616461C460A9D4FF0000B7C48DE
:101480000078002805DD46F2AE1028800020BDE877
:10149000F09F26B946F2D52028800020F7E71FB13B
:1014A000B7F5004F02D100E000BF04E045F625602B
:1014B00028800020EBE700BF0CB10020206000BFB7
:1014C00000BFFEF7D5FE834600BF00BF6948006835
:1014D00000F164092B4622463146484601F050FB94
:1014E00082462888F0B9A4B1FFF74AF82168401A6B
:1014F0006049096848675F480068806F5D4909680E
:10150000496F884205D25B480068406F59490968B5
:10151000886700BF00BF5846FEF7AEFE00BF00BFA1
:101520005046B4E707F4004058B146F2B0102880A6
:1015300000BF00BF5846FEF79FFE00BF00BF00205F
:10154000A5E74D48007800280BDD00BF00BF5846D6
:10155000FEF792FE00BF00BF46F6635028800020D1
:1015600095E700BF44480078401C4349087000BF1D
:1015700000BF5846FEF780FE00BF00BF00BF4346D5
:1015800002220021084601F0C1FB00BF00BF00BFDE
:10159000FEF76EFE834600BF00BF37480078401E4E
:1015A0003549087000BF00BF5846FEF765FE00BF12
:1015B00000BF00BFFFF7DAFA00BF00BFFEF758FE1A
:1015C000834600BF00BF2B48006890F8350020B16B
:1015D00001282AD0032832D132E026480068D0F80A
:1015E0005CA024480068B0F860003080D4B1214885
:1015F0000068006C2060FEF7C3FF1E490968096C93
:10160000401A1C49096848671A480068806F1949E0
:101610000968496F884205D216480068406F15492D
:10162000096888670020288017E04FF0000A002032
:10163000308004B1206046F2A91028800DE000BF80
:101640004FF0000A002030801CB10A480068006C8E
:10165000206047F2D920288000BF00BF00BF00BF34
:101660005846FEF709FE00BF00BF50460FE70000D6
:1016700048000020E8000020900000202DE9FF47EE
:101680000746884691461D460C9E4DB1102D08D048
:10169000B5F5004F06D0A5F50040103820B902E09E
:1016A00000BF00BF00BF04E045F625603080BDE804
:1016B000FF8700BFFEF764FF04460D48007800284E
:1016C0000BDD00204B4642463946CDE90246CDE9C6
:1016D0000005084800F0A2FFE9E72B464A464146CC
:1016E0003846CDE9004602F081FA00BFDFE700008E
:1016F00048000020544D53477FB504460D46002650
:1017000000BF00BFFEF7B4FD064600BF00BF1CB11E
:101710001548006884420AD100BF00BF3046FEF77A
:10172000ABFD00BF00BF47F2571028807FBD00BF50
:1017300000BF3046FEF7A0FD00BF00BF0B48007899
:1017400000280BDD00200090019003460246214650
:10175000CDE90205064800F061FFE7E7294620468B
:1017600002F058FB00BFE1E7E8000020480000203D
:101770005452455310B504460348006818B120463A
:1017800001490968884710BD300000202DE9F04765
:1017900080460E4614461D464FF000097D480078ED
:1017A000002805DD46F2AE1028800020BDE8F08755
:1017B0001EB1B6F5004F02D100E000BF04E045F6CF
:1017C000256028800020F1E700BF0CB100202060D8
:1017D00000BF00BFFEF74CFD814600BF00BF6E4852
:1017E0000068406CA8B36C480068406C401E6A49B1
:1017F0000968486468480068476C1CB1664800681E
:10180000006C2060FEF7BCFE63490968096C401A51
:1018100061490968C1F8A4005F480068D0F8A800D1
:101820005D490968D1F8A410884207D25A48006877
:10183000D0F8A40058490968C1F8A80000BF00BF4B
:101840004846FEF719FD00BF00BF0020288038463B
:10185000ACE7FFE706F4004058B100BF00BF4846C0
:10186000FEF70AFD00BF00BF46F2B010288000203E
:101870009CE74A48007800280BDD00BF00BF4846BF
:10188000FEF7FAFC00BF00BF46F663502880002038
:101890008CE700BF41480078401C4049087000BFF9
:1018A00000BF4846FEF7E8FC00BF00BF00BF43464C
:1018B00007220021084601F029FA00BF00BF00BF3F
:1018C000FEF7D6FC814600BF00BF34480078401EBA
:1018D0003249087000BF00BF4846FEF7CDFC00BF8C
:1018E00000BF00BFFFF742F900BF00BFFEF7C0FC1A
:1018F000814600BF00BF2848006890F8350020B13D
:10190000012826D0032834D12CE0FCB122480068FD
:10191000006C2060FEF734FE1F490968096C401A0C
:101920001D490968C1F8A4001B480068D0F8A80048
:1019300019490968D1F8A410884207D216480068EE
:10194000D0F8A40014490968C1F8A8000020288034
:1019500013E01CB110480068006C206046F2A9102A
:1019600028800AE00CB10020206047F2D9202880AE
:1019700003E046F62E60288000BF00BF06480068DE
:10198000476C00BF00BF4846FEF776FC00BF00BFB3
:1019900038460BE748000020E800002090000020B7
:1019A0002DE9F04705460E4617461C464FF0000A43
:1019B0002E480078002804DD47F259102080BDE849
:1019C000F0871EB946F2D5202080F8E71FB946F20D
:1019D000D5202080F3E700BF00BFFEF749FC824618
:1019E00000BF00BF0DB922480568286868B900BF6C
:1019F00000BF5046FEF740FC00BF00BF0020306033
:101A0000386047F252102080D9E795F83C0000F08A
:101A1000010068B900BF00BF5046FEF72DFC00BFB3
:101A200000BF00203060386047F254102080C6E7C5
:101A300000BF00BF5046FEF71FFC00BF00BF4FF0C5
:101A40000008D5F8249003E009F1040908F1010821
:101A5000D9F800000028F7D0C6F80080A86BA0EBEA
:101A6000080038600020208000BFA8E74800002060
:101A7000E8000020F0B50446DDE9055602EB8500DC
:101A800020F007004FF0000C071F3846C7F800C0D1
:101A90004FF4805C071F3846C7F800C04FF0150CA4
:101AA000071F3846C7F800C04FF0140C071F384610
:101AB000C7F800C04FF0130C071F3846C7F800C026
:101AC0004FF0120C071F3846C7F800C04FF0110C3A
:101AD000071F3846C7F800C04FF0100C071F3846E4
:101AE000C7F800C04FF0090C071F3846C7F800C000
:101AF0004FF0080C071F3846C7F800C04FF0070C1E
:101B0000071F3846C7F800C04FF0060C071F3846BD
:101B1000C7F800C04FF0050C071F3846C7F800C0D3
:101B20004FF0040C071F3846C7F800C04FF0030CF5
:101B3000071F3846C7F800C04FF0020C071F384691
:101B4000C7F800C04FF0010C071F3846C7F800C0A7
:101B50004FF0000C071F3846C7F800C04FF0807CDC
:101B6000071F3846C7F800C0071F38463C60DFF83B
:101B70005CC1071F3846C7F800C04FF0123C071F72
:101B80003846C7F800C04FF0033C071F3846C7F877
:101B900000C04FF0023C071F3846C7F800C0071FBF
:101BA00038463B60071F384639604FF0310C071F3D
:101BB0003846C7F800C04FF0300C071F3846C7F84A
:101BC00000C04FF0290C071F3846C7F800C04FF07F
:101BD000280C071F3846C7F800C04FF0270C071F16
:101BE0003846C7F800C04FF0260C071F3846C7F824
:101BF00000C04FF0250C071F3846C7F800C04FF053
:101C0000240C071F3846C7F800C04FF0230C071FED
:101C10003846C7F800C04FF0220C071F3846C7F8F7
:101C200000C04FF0210C071F3846C7F800C04FF026
:101C3000200C071F3846C7F800C04FF0190C071FCB
:101C40003846C7F800C04FF0180C071F3846C7F8D1
:101C500000C04FF0170C071F3846C7F800C04FF000
:101C6000160C071F3846C7F800C04FF0113C071F7D
:101C70003846C7F800C04FF0103C071F3846C7F879
:101C800000C04FF0093C071F3846C7F800C04FF0AE
:101C9000083C071F3846C7F800C04FF0073C071F35
:101CA0003846C7F800C04FF0063C071F3846C7F853
:101CB00000C04FF0053C071F3846C7F800C04FF082
:101CC000043C071F3846C7F800C0F0BD553F000868
:101CD0007FB505460C461248854203D147F25B109A
:101CE00020807FBD0F48854203D147F25C102080E1
:101CF000F7E70D48007800280BDD002000900190E8
:101D0000034602462946CDE90204084800F086FC55
:101D1000E7E72146284602F08BFB00BFE1E7000021
:101D200070270020342800204800002054535553C9
:101D300010B51D48006810B11B4800688047FEF7C9
:101D40001FFC04461948006819490968884215D0E3
:101D500016480068D0F89800201A14490968C1F89C
:101D6000940012480068D0F89C0010490968D1F826
:101D7000941008440D490968C1F89C000C4800689B
:101D8000C0F8984009480068D0F8B40009490968CB
:101D9000884205D20748006804490968C1F8B400C0
:101DA00000200449086010BD3C000020E80000202D
:101DB000EC0000208C0000202DE9F04105460E4685
:101DC000144600273F480078002804DD47F27520BC
:101DD0002080BDE8F0813C480078002803DD46F60D
:101DE00063502080F5E736B1022E05D0042E0AD0CC
:101DF000082E09D101E000BF00BF1DB947F27E20C7
:101E00002080E6E704E003E045F625602080E0E777
:101E100000BF00BF00BF00BFFEF72AFA074600BFA1
:101E200000BF29480078401C2749087000BF00BF48
:101E30003846FEF721FA00BF00BF00BF012023494A
:101E4000096881F836002346324629461F48006853
:101E500002F0AAFB2088A8B100BF00BF00BFFEF7B8
:101E600007FA074600BF00BF17480078401E164912
:101E7000087000BF00BF3846FEF7FEF900BF00BF84
:101E800000BFA6E71148006801F028FA00BF00BFB4
:101E900000BFFEF7EDF9074600BF00BF0A48007813
:101EA000401E0949087000BF00BF3846FEF7E4F93C
:101EB00000BF00BF00BFFEF759FE0020208000BF1A
:101EC00087E700004800002090000020E800002084
:101ED0002DE9FF5F05460E4617469846DDE90EA43C
:101EE0000020009072480078002804DD47F2752039
:101EF0002080BDE8FF9F6F480078002803DD46F68C
:101F000063502080F5E70AF00E0BBBF1000F09D0FB
:101F1000BBF1020F07D0BBF1040F10D0BBF1080FCB
:101F20000ED101E000BF00BFB8F1000F06D12FB9FC
:101F300026B91DB947F27E202080DAE704E003E0ED
:101F400045F625602080D4E700BF2AF01E0008B1C6
:101F5000012000E0002003900398012803D145F6FA
:101F600025602080C5E7CAF3001002900298C0B92E
:101F7000B8F57A7F03D347F27B202080B9E73B2F67
:101F800003DD47F27A202080B3E73B2E03DD47F2E2
:101F900079202080ADE7632D12DD47F27820208084
:101FA000A7E742F20F70864203DD47F279202080D6
:101FB0009FE7B5F57A7F03DB47F27820208098E72A
:101FC0003D48D0F800904FF4FA70B0FBF9F040446F
:101FD00000FB09F04FF47A71B0FBF1F14FF461604E
:101FE0006843C6EB061200EB8200384400FB091080
:101FF00001900198002856D000BF00BF00BFFEF737
:1020000037F9009000BF00BF2A480078401C2949DA
:10201000087000BF00BF0098FEF72EF900BF00BF98
:1020200000BF01202549096881F8360023465A4639
:1020300022480199006802F0B7FA2088A8B100BFD1
:1020400000BF00BFFEF714F9009000BF00BF1948A1
:102050000078401E1749087000BF00BF0098FEF7C7
:102060000BF900BF00BF00BF43E71448006801F050
:1020700035F900BF00BF00BFFEF7FAF8009000BFBF
:1020800000BF0C480078401E0A49087000BF00BF1E
:102090000098FEF7F1F800BF00BF00BFFEF766FD35
:1020A0000020208002E047F27E20208000BF20E751
:1020B0004800002090000020DC570008E8000020C5
:1020C00010B586B000F01EF8FEF75AFA044605A8CF
:1020D00000210091CDE9011403900748007800EB3E
:1020E0004000064A02EB800100231A46044800F033
:1020F00095FA06B010BD00007600002004290020EB
:102100005449434B10B50348006810B101480068BA
:10211000804710BD40000020244825482548264817
:1021200026482748274828482848294829482A482F
:102130002A482B482B482C482C482D482D482E48FF
:102140002E482F482F4830483048314831483248CF
:10215000324833483348344834483548354836489F
:1021600036483748374838483848394839483A486F
:102170003A483B483B483C483C483D483D483E483F
:102180003E483F483F48404840484148414842480F
:1021900042484348434844484448454845484648DF
:1021A00046484748474800BF70470000205800088D
:1021B00088590008225800082358000824580008AD
:1021C000285800082C5800082958000854580008BE
:1021D0005558000856580008585800085A58000822
:1021E0005C5800085E5800086058000880580008D5
:1021F000825800088458000886580008885800084B
:102200008A5800088C580008B8580008B9580008C7
:10221000BA580008BC580008BE580008BF5800084B
:10222000C0580008C2580008C4580008C658000822
:10223000C8580008CA580008CC580008FC580008C4
:10224000FD580008FE580008FF5800080059000813
:1022500002590008045900082C5900082D5900089B
:102260002E5900082F59000830590008325900082B
:102270003459000838590008395900083A590008FB
:102280003B5900083C5900083D5900083E590008D8
:102290003F590008405900084259000843590008B6
:1022A000445900084659000848590008495900088F
:1022B0004C590008805900088159000882590008CB
:1022C00084590008865900080021034A1160034A16
:1022D0001180018070470000600000206400002031
:1022E0002DE9F04F85B00446894692469B46DDF8BD
:1022F00038800020009000BF00BFFDF7B9FF0090BC
:1023000000BF00BFBAF1000F0AD0BAF1010F0DD023
:10231000BAF5004F05D06FF40040504460B906E0B4
:1023200000BF206A40EA0900206214E000BF206A72
:1023300020EA090020620EE000BF00BF0098FDF710
:102340009BFF00BF00BF45F62560A8F800000020F5
:1023500005B0BDE8F08F00BFC4F824B004F1080058
:1023600001900198008958B900BF00BF0098FDF79F
:1023700083FF00BF00BF0020A8F80000206AE7E745
:1023800000BF61480078401C5F49087000BF00BF73
:102390000098FDF771FF00BF00BF00BF01980768FC
:1023A000BD687FE07868029095F8880000F00F0023
:1023B00003900398012821D002282ED0042802D0AF
:1023C000082836D10EE0206AD5F8801000EA010610
:1023D000D5F88000B04204D15A463146284600F074
:1023E00097F859E0206AD5F8801000EA010626B176
:1023F0005A463146284600F08BF84DE0D5F880006B
:10240000216A20EA0106D5F88000B04204D15A467C
:102410003146284600F07CF83EE0D5F88000216A7D
:1024200020EA010626B15A463146284600F070F8E7
:1024300032E000BF00BF00BFFDF71AFF009000BFF1
:1024400000BF31480078401E2F49087008460078C8
:10245000A0B92E480088002809DD00BF00BF009801
:10246000FDF70AFF00BF00BF00F066FF0DE000BFF0
:1024700000BF0098FDF700FF00BF06E000BF00BFEF
:102480000098FDF7F9FE00BF00BF00BF43F6FF2034
:10249000A8F8000000205BE700BF029F0FB1BD68F5
:1024A00000E00025002D7FF47DAF00BF00BF00BF1E
:1024B000FDF7DEFE009000BF00BF13480078401E0D
:1024C0001149087000BF00BF0098FDF7D5FE00BF9E
:1024D00000BF00BF0AF4004008B9FEF747FB00BF89
:1024E00000BFFDF7C5FE009000BF00BF206A04904A
:1024F00000BF00BF0098FDF7BFFE00BF00BF002077
:10250000A8F80000049823E7900000205400002061
:1025100070B504460E4615463434266500206070BA
:102520002070E560A078343C082816D2DFE800F07F
:10253000040508090706101100BF00BF00BF0DE029
:1025400000BF204601F058FC002084F8360005E06A
:1025500000BF042084F8360000E000BF00BF204622
:1025600000F08FFC70BD0000002400BF19E000BF28
:1025700000BFFDF77DFE044600BF00BF09480068AC
:10258000401C0849086008480068401C064908606B
:1025900000BF00BF2046FDF76FFE00BF00BFFEF783
:1025A0007DF9E4E744000020A800002010B58AB0BF
:1025B000044600200E4908600B2000210591CDE95A
:1025C0000704069108460B4909680B4A12680B4B31
:1025D0001B68CDE90132CDE903103F200023084AF2
:1025E00008A100900C48FEF719FD0AB010BD0000CC
:1025F0004400002084570008805700087C570008DA
:102600006925000875432F4F532D494949204964D6
:102610006C65205461736B00702700202DE9F84F22
:1026200004460D4616461F46DDE90BABDDF8289043
:10263000DDF834800020009000BF00BFFDF718FED9
:10264000009000BF00BF2B4800882B4909888842B2
:102650003EDA28480088401C264908802748008820
:102660000988884203DA23480088244908802448DE
:102670000068046022480068856021480068C660E0
:102680001F48006807821E480068C0F814901C4864
:102690000068A0F818A01A480068C0F81CB01848D4
:1026A00000684068164908600120164908811648EC
:1026B00008604860002000F0B3FC1448007818B1AE
:1026C00012480078124908700020A8F8000008E0BD
:1026D00010480088401C0F49088044F25360A8F855
:1026E000000000BF00BF0098FDF7C6FD00BF00BF9F
:1026F000BDE8F88F540000209057000856000020D5
:102700004C000020042900203428002076000020FE
:1027100078000020580000203EB559480068006845
:10272000584A811A904279D00FDC57490844002852
:102730003ED056490844A8B155490844002860D005
:102740005449084400286AD13FE05348084400280F
:1027500050D052490844002862D05149084400280A
:10276000F1D110E002A8464D00902D68EB69444D70
:102770002D682A8B424D2D686969414D2D68A868E6
:10278000FFF7AEFD7AE002A93D480068C0693C4D04
:10279000CDE900012D682B8B394D2D682A8A384DE3
:1027A0002D68E968364D2D68A86800F069FC65E081
:1027B000334B1B68DA69324B1B68198B304B1B6833
:1027C000986802AB00F082FE58E002A92C4800682D
:1027D000C0692B4DCDE900012D682B8B284D2D684C
:1027E0002A8A274D2D68E968254D2D68A86801F0D3
:1027F000FDF943E022490968886802A901F00AFB53
:102800003CE01F4B1B68DA691D4B1B68198B1C4B86
:102810001B68986802AB01F0A9FB2FE007E02CE0F1
:1028200017490968886802A901F002FE26E01D49DF
:10283000097801EB41011C4A02EB810000F0D2FD56
:102840000F48006802AB0021C269184801F08EFBF6
:1028500017480068401E164908600846006858B9C5
:10286000144800680860FDF78BFE044602AB224660
:102870000021114801F07AFB00E000BF00BF3EBD1F
:10288000500000205449434BADBAB2BE0DF90BFACB
:10289000F2F8F7FF0006F6FF00F7FDF700FFEFFF85
:1028A00003FE0FFE7800002004290020C82C002021
:1028B000E4000020E00000208C2D0020002700BF55
:1028C0004CE0002648E000BF00BFFDF7D1FC074602
:1028D00000BF00BF2248008888B900202149088134
:1028E0000860486000F0AEFB00BF00BF3846FDF74F
:1028F000C3FC00BF00BFFEF739F901262CE000BF82
:1029000000BF3846FDF7B8FC00BF00BFFDF738FE3A
:102910000546FFF701FFFDF733FE441B1248006830
:10292000A04201D21048046000BF00BFFDF7A0FC28
:10293000074600BF00BF0D48006840680B490860AB
:1029400007480088401E0649088000BF00BF38467F
:10295000FDF792FC00BF00BF002EB4D0B1E700002D
:1029600054000020042900205C00002050000020BA
:10297000F0B589B00546002031490880314800682B
:1029800020B944F25260288009B0F0BD2E4800887A
:10299000022803DA44F254602880F5E700202B492E
:1029A0000860284804682646203600270CE028489E
:1029B00020600020A060E06020826061208366606B
:1029C00020342036781C87B21F4800888742EEDB0F
:1029D000203C1C48066866601E4806601E4806606B
:1029E00000201E4908801E4908801E48006818B94A
:1029F00044F255602880C7E71B4800681B490968F6
:102A0000884203D244F256602880BDE703200021AB
:102A10000591CDE90705069113480068144A12682C
:102A2000104B1B68CDE90301CDE9013200910B4643
:102A3000104A11A11748FEF7F1FA00BFA4E7000001
:102A4000580000208C570008905700085C000020B8
:102A50004E4F4E454C0000205000002054000020F6
:102A60005600002098570008A0570008D8570008C3
:102A70009C570008BD28000875432F4F532D494926
:102A80004920495352205175657565205461736B17
:102A900000000000342800200021034A1160034A8E
:102AA0001180018070470000680000206C00002049
:102AB00070B502460B461046114610315E1EB5B287
:102AC000002408E00160002646600681C6601030E0
:102AD0001031661CB4B2AC42F4DB002606604660DE
:102AE0000681C66070BD000010B50446104800683D
:102AF00018B945F21E70208010BD0E48008818B924
:102B000045F21D702080F7E70A48018808480068F0
:102B1000FFF7CEFF064800680749086005480088AF
:102B200088800020C8800881208000BFE4E7000082
:102B3000BC570008B4570008F828002010B501461B
:102B400048894B89002B17DD0A680C4B1B68136002
:102B50000A4C4B6823602346DB884C891B1B074CBF
:102B6000E38023469B884C892344044CA3800023A4
:102B70004B818B810B604B6010BD0000F82800205A
:102B8000F0B504460D46608940B90020288002B1A6
:102B9000106046F2925018800020F0BD61684E68C7
:102BA000088928800AB1C868106008686060606899
:102BB00018B900202060608102E06089401E6081B9
:102BC000084800680860074801608088401C054F7D
:102BD000B8803846C088401EF880002018803046F3
:102BE000DBE70000F8280020018100224281828179
:102BF00002604260704700002DE9F0410D46DDE9BA
:102C00000674B0F80AC0B0F80880C44505DB46F287
:102C1000935CA4F800C0BDE8F081DFF8D4C0BCF834
:102C200004C0BCF1000F04D145F21D7CA4F800C023
:102C3000F1E7DFF8BCC0DCF80010DFF8B480D1F8B1
:102C400000C0C8F800C0C446BCF804C0ACF1010C18
:102C5000A8F804C0C446BCF806C00CF1010CA8F8E2
:102C600006C0C446BCF808C0B8F80680C44507DAF8
:102C7000DFF87CC0BCF806C0DFF87480A8F808C094
:102C8000B0F80AC0BCF1000F06D1016041604FF0FE
:102C9000010CA0F80AC017E003F0100CBCF1000F03
:102CA00007D1066831604FF0000CC1F800C0016028
:102CB00004E0D0F804C0C1F800C04160B0F80AC018
:102CC0000CF1010CA0F80AC0B0F80CC0B0F80A80F2
:102CD000C44503DAB0F80AC0A0F80CC04D600A8100
:102CE000CF604FF0000CA4F800C000BF93E70000D5
:102CF000F82800200021034A1160034A1180018056
:102D00007047000070000020740000202DE9F041A1
:102D100005460C4616461F461548006880F8346084
:102D200000201349096881F83500394610480068C9
:102D300000F092FE6CB104F10808EC600122294613
:102D40000B48006800F016F82946404600F066F887
:102D500006E0002006490968C88705490968086334
:102D600003480168204600F019F8BDE8F081000032
:102D7000E800002010B5C287016300230AE00024A8
:102D80004C600C600C614C610C83CC61886020311C
:102D90005C1CA3B29342F2DB10BD000030B548B119
:102DA0004568C1F8C05000F10804226893681D6AA4
:102DB000C56113E091F83450022D02D0072D08D1DF
:102DC00003E007A5C1F8C05007E007A5C1F8C0504F
:102DD00003E008A5C1F8C05000BF00BF30BD00002F
:102DE0005461736B205100005461736B2053656D07
:102DF000000000002000000030B507A5C1F8C05059
:102E000000F1080422681AB193681D6AC56101E0E7
:102E100001A5C56130BD000020000000F0B58E683E
:102E200096F8375007893FB90127078100274F607F
:102E30000F600160416023E007897F1C0781026801
:102E400006E0946894F83770AF4200DD02E0526803
:102E5000002AF6D100BF32B900274F6043680B60EB
:102E6000596041600CE017682FB9116000270F60AE
:102E70004A60016004E013680B604A6059601160A9
:102E8000F0BD2DE9F0410446256BE68F0AE0D5F848
:102E90000C8008F108072946384600F00AF820356A
:102EA000701E86B2002EF2DC0020E0872063BDE8B1
:102EB000F08110B50489012C03D100240460446022
:102EC00011E00C6824B94A680024146002600AE02A
:102ED0004C6824B90B6800245C60436003E00B6815
:102EE0004A685A6013600489641E048100244C609F
:102EF0000C6010BD2DE9F84306460C46174698466F
:102F0000089D94F83600082850D2DFE800F0040548
:102F1000080906072B2C00BF00BF00BF47E000BF19
:102F200094F83400032807D143463A4621463046F8
:102F3000009500F03FF803E0E765A4F860802564A1
:102F400036B12046FFF79DFF21463046FFF754FF7C
:102F5000204600F051FF00203434A070607004F867
:102F6000340924E000BF94F83400032807D1434615
:102F70003A4621463046009500F01CF803E0E7652C
:102F8000A4F860802564204601F0ECFB36B12046B1
:102F9000FFF777FF21463046FFF72EFF0420343439
:102FA000A0700020607004F8340900E000BF00BF8A
:102FB000BDE8F883F0B50446059E086BCD8F0AE0A6
:102FC000C768A74204D1046142610383C66104E07B
:102FD00020306F1EBDB2002DF2DC00BFF0BD00003E
:102FE00070B50025074C03E005F12000C5B2241D93
:102FF00020680028F8D02068FDF745F92844C5B2BC
:10300000284670BD20000020002004E00021034A73
:1030100042F82010401C0228F8D3704720000020FE
:1030200030B5420900F01F030121C3F11F04A14084
:10303000034C54F822400C43014D45F8224030BD6A
:103040002000002030B5420900F01F030121C3F128
:103050001F04A140034C54F822408C43014D45F815
:10306000224030BD200000200021034A1160034AA5
:1030700011800180704700007C000020800000204B
:103080002DE9F04F85B007468A4693461C4600203E
:10309000029000BF00BF00BFFDF7EAF8029000BF3A
:1030A00000BF48480078401C4649087000BF00BF78
:1030B0000298FDF7E1F800BF00BF00BF07F1080666
:1030C0003089002842D104F0100010B94FF00008F8
:1030D00001E04FF01008DDE90E0143465A46CDE904
:1030E0000001514607F12000FFF786FD00BF00BF39
:1030F00000BFFDF7BDF8029000BF00BF3148007867
:10310000401E3049087008460078A0B92E48008853
:10311000002809DD00BF00BF0298FDF7ADF800BF31
:1031200000BF00F009F90DE000BF00BF0298FDF7F5
:10313000A3F800BF06E000BF00BF0298FDF79CF8AF
:1031400000BF00BF00BF05B0BDE8F08F04F4007001
:1031500008B1358900E00125D6F8009011E0D9F8D2
:1031600008000390D9F8040004900E985B4652467C
:10317000009038460399FFF7BDFEDDF81090681EF9
:1031800085B2002DEBD100BF00BF00BFFDF770F886
:10319000029000BF00BF0B480078401E094908702C
:1031A00000BF00BF0298FDF767F800BF00BF00BF77
:1031B00004F4004008B9FDF7D9FC00210F98018004
:1031C00000BFC0E7900000205400002000210AE06A
:1031D00001EB4102054B03EB8200002202810260F9
:1031E00042604A1CD1B24029F2D370470429002022
:1031F00010B5044694F83700FFF712FF94F8370033
:1032000005490978884203D1204600F027F802E0FA
:10321000204600F003F810BD7600002010B590F8AD
:10322000373003EB43030C4C04EB83010B893BB9B0
:1032300001230B810023C36003610860486009E03B
:103240000B895B1C0B810B68C360002303610A6858
:103250001061086010BD00000429002010B590F82E
:10326000373003EB43030B4C04EB83010B893BB971
:1032700001230B810023C36003610860486008E0FC
:103280000B895B1C0B810023C3604A680261D0601C
:10329000486010BD0429002010B501460C8924B1F6
:1032A000012C03D0022C0CD101E000BF14E008680F
:1032B0004A6802610024C4601461D0600A604860FA
:1032C0000AE008684A68C36800241C61C46002619F
:1032D000D0600B60486000BF00BF10BD2DE9F04119
:1032E000054695F8370000EB4000124901EB8004D9
:1032F0002F69EE6887B946B90020208120606060A0
:1033000095F83700FFF79EFE0EE02089401E2081D1
:1033100000203061266007E02089401E2081FE6089
:103320000EB9676000E0376100202861E860BDE801
:10333000F08100000429002010B5002400BFFCF734
:1033400097FF044600BF00200C4908700C480D4947
:10335000086008460068D0F89000401C0968C1F871
:10336000900009480068401C07490860FDF76DF8A7
:1033700000BF2046FCF780FF00BF10BD7700002093
:1033800034280020EC000020BC00002010B50448C8
:103390000078012803D1FDF7F3F80249086010BD59
:1033A000900000208400002010B50A48007880B901
:1033B000FDF7E6F808490968441A08480068A04281
:1033C00001D20648046006480068A04201D20448C1
:1033D000046010BD900000208400002088000020C0
:1033E0008C00002070B5054600262E480078012884
:1033F00000D070BD00BF00BFFCF73AFF064600BF1B
:1034000000BF2C683CB900BF00BF3046FCF734FF5A
:1034100000BF00BFEDE72448844207D100BF00BFD2
:103420003046FCF729FF00BF00BFE2E7A06D10B1F6
:10343000A06D401EA065A06D38B100BF00BF304632
:10344000FCF71AFF00BF00BFD3E72889022807DA7C
:1034500000BF00BF3046FCF70FFF00BF00BFC8E74A
:1034600012480078002807DD00BF00BF3046FCF797
:1034700003FF00BF00BFBCE72846FFF70DFF2C6825
:10348000606D18B90A480068A06501E0606DA0652C
:1034900000BF00BF3046FCF7EFFE00BF00BF00BF1B
:1034A000A7E700009800002070270020900000206F
:1034B000940000200021034A1160034A118001801A
:1034C000704700009C000020A00000202DE9FF5F55
:1034D0000446884691461D460020019000BF00BF6B
:1034E000FCF7C6FE019000BF00BF04F10807388951
:1034F00000284FD10420012804D0022814D0042829
:1035000034D123E0206AFF280DD100BF00BF01980D
:10351000FCF7B2FE00BF00BF46F6C5502880002071
:1035200004B0BDE8F09F22E04FF6FF71206A8842A8
:103530000BD100BF00BF0198FCF79EFE00BF00BF8B
:1035400046F6C55028800020EAE710E0206A401CBB
:1035500058B900BF00BF0198FCF78EFE00BF00BF46
:1035600046F6C55028800020DAE700E000BF00BF23
:10357000206A401C2062D4F820A0C4F8249000BF28
:1035800000BF0198FCF778FE00BF00BF0020288034
:103590005046C5E700BF25480078401C2349087005
:1035A00000BF00BF0198FCF767FE00BF00BF00BF6F
:1035B00008F4007008B13E8900E00126D7F800B099
:1035C00011E0DBF808000290DBF804000390002310
:1035D0001A46CDF8009020460299FFF78BFCDDF8E3
:1035E0000CB0701E86B2002EEBD1D4F820A000BF24
:1035F00000BF00BFFCF73CFE019000BF00BF0B48BE
:103600000078401E0949087000BF00BF0198FCF710
:1036100033FE00BF00BF00BF08F4004008B9FDF74B
:10362000A5FA0020288050467AE70000900000208C
:1036300086B00020009000BF06E0C349096848003A
:1036400001AA0021FEF7B8FBC04800780128F4D198
:1036500001A8FDF7C5FB0027BD480068BA49096805
:10366000884205D9BA480068B7490968B0FBF1F744
:1036700027B9B74800680A21B0FBF1F762E1FCF70F
:103680007FFF804600BF00BFFCF7F2FD009000BF47
:1036900000BFB0480068B04908600020AD4908602C
:1036A00000BF00BF0098FCF7E7FD00BF00BFAB48BC
:1036B0000068A9490968884248D9A8480068A8490B
:1036C000884205D242F2107003900120029023E05C
:1036D000A2480068A349884205D24FF47A7003904B
:1036E0000A20029018E09D4800689F49884203D252
:1036F0006420039002900FE0984800689B4988423C
:1037000005D20A2003904FF47A70029004E0012061
:10371000039042F210700290904801680298B1FB49
:10372000F0FA8D49039809684843B0FBFAF042F279
:103730001071081A8E4908808E48008809888842CE
:1037400008DA8B4800888B49088003E042F2107049
:1037500087490880FDF758FC002500BF00BFFCF733
:1037600087FD009000BF00BF8348046800BF00BF12
:103770000098FCF781FD00BF00BF5AE000BF00BF0A
:1037800000BFFCF775FD009000BF00BF7B480078CC
:10379000401C7A49087000BF00BF0098FCF76CFD20
:1037A00000BF00BF00BF54F89C0F6060002044F8C9
:1037B0009C0900BF00BF00BFFCF75AFD009000BF8E
:1037C00000BF6E480078401E6C49087008460078BB
:1037D000A0B96B480088002809DD00BF00BF009831
:1037E000FCF74AFD00BF00BFFFF7A6FD0DE000BFDC
:1037F00000BF0098FCF740FD00BF06E000BF00BF1F
:103800000098FCF739FD00BF00BF00BFD4F8A0004E
:10381000054400BF00BFFCF72BFD009000BF00BFB8
:10382000D4F8BC4000BF00BF0098FCF725FD00BFE6
:1038300000BF002CA2D145B34948854205D242F2CF
:10384000107005904FF0010B1BE04648854205D2F1
:103850004FF47A7005904FF00A0B12E0424885420F
:1038600003D26420059083460BE04048854204D291
:103870000A2005904FF47A7B03E00120059042F284
:10388000107BB5FBFBF0049003E0002005900120C5
:10389000049000BF00BFFCF7EBFC009000BF00BF2E
:1038A0003548046800BF00BF0098FCF7E5FC00BF86
:1038B00000BF2BE0D4F8A000059948430499B0FB61
:1038C000F1F086B242F21070864200D90646A4F8A2
:1038D0008C60B4F88E00B04201DAA4F88E6001ABBF
:1038E00004F1AC02111D2046FEF75AF800BF00BFDC
:1038F000FCF7BEFC009000BF00BFD4F8BC4000BF86
:1039000000BF0098FCF7B8FC00BF00BF002CD1D16D
:103910001C480078012805D100201A49087001A828
:10392000FDF75EFAFCF72CFEA0EB080916480068CC
:10393000484502D21448C0F8009001AA0021384638
:10394000FEF73AFA9BE60000C4570008B4000020D6
:10395000DC570008A8000020B0000020AC000020C8
:10396000801A060000093D00005A62020084D71741
:10397000A4000020A6000020C0000020900000202D
:1039800054000020A2000020B800002010B58AB02A
:10399000044600201F4908601F4908601F4908604D
:1039A0001F4908701F4908701F48006820B946F673
:1039B0002B6020800AB010BD1C4800681C490968B3
:1039C000884203D246F62C602080F3E7194800783D
:1039D0003F2803D346F62A602080EBE7032000212E
:1039E0000591CDE907040691084610490968124A75
:1039F00012680D4B1B68CDE90132CDE903100D486B
:103A0000007800230D4A0EA100901248FDF706FB36
:103A100000BFCFE7A8000020B0000020AC000020CD
:103A2000B4000020A2000020C8570008D0570008AA
:103A3000D8570008C0570008CC5700083136000896
:103A400075432F4F532D49494920537461742054B5
:103A500061736B00042C002038B504460D4685B117
:103A60006B4602222946204600F09EFDBDF800006C
:103A700018B9032084F8360006E0022084F83600E6
:103A800002E0022084F836002046FFF727FC38BD0C
:103A90000021C0F8B8100949096819B90021C0F817
:103AA000BC1007E005490968C0F8BC100349096863
:103AB000C1F8B8000149086070470000C00000204C
:103AC000D0F8B820D0F8BC104AB90D4B196011B12C
:103AD0000023C1F8B8300023C0F8BC300FE029B98A
:103AE0000023C2F8BC30C0F8B83008E0C2F8BC10FF
:103AF000C1F8B8200023C0F8BC30C0F8B830704717
:103B0000C00000200021044A1160044A1180044AC8
:103B10001160018070470000C0000020C400002038
:103B2000BC00002070B5044600202060A0606060EA
:103B3000E06020616061A061E06129A02062002056
:103B40006062A062E0622064E065A4F86000002189
:103B500004F16400FFF748F8002044F8740F606037
:103B6000E060A0822061743C002506E0002104F1A1
:103B70007C0040F82510681CC5B2002DF6D000204E
:103B80003434206120676067606084F85600E06725
:103B9000A06720814FF0004060610020A061E061DB
:103BA00020626062A4F85800A4F85A00E06520661C
:103BB000FCF7E6FC064666660020A066C4F88000B6
:103BC00020706070A0704020E0700020C4F8840075
:103BD000C4F8880004A0C4F88C00343C70BD000018
:103BE0003F5461736B000000200000002DE9FC478A
:103BF00004460F4690469946DDE90A654FF0000AF3
:103C000000BF00BF00BFFCF733FB824600BF00BF10
:103C100076480078401C7549087000BF00BF5046C8
:103C2000FCF72AFB00BF00BF00BF0CB97048046856
:103C30000020288094F8360008287DD2DFE800F0C4
:103C400004053E3F0607404100BF00BF00BF4B4692
:103C50004246394604F16400CDE90065FEF7CCFF29
:103C600000BF00BF00BFFCF703FB824600BF00BFE0
:103C70005E480078401E5D49087008460078A0B98B
:103C80005C480088002809DD00BF00BF5046FCF7F3
:103C9000F3FA00BF00BFFFF74FFB0DE000BF00BF0E
:103CA0005046FCF7E9FA00BF06E000BF00BF5046EF
:103CB000FCF7E2FA00BF00BF00BF93E000BF00BF07
:103CC00000BF94F83400022821D143463A462146E9
:103CD00000200096FFF70EF900BF00BF00BFFCF701
:103CE000C7FA824600BF00BF40480078401E3F49E7
:103CF000087000BF00BF5046FCF7BEFA00BF00BF0F
:103D000000BF09F4004090BBFCF730FF38E04B46A1
:103D10004246394604F16400CDE90065FEF76CFFC8
:103D200000BF00BF00BFFCF7A3FA824600BF00BF80
:103D30002E480078401E00E023E02C490870084619
:103D40000078A8B92B480088002809DD00BF00BF13
:103D50005046FCF791FA00BF00BFFFF7EDFA0EE006
:103D600000BF00BF5046FCF787FA00BF07E007E03E
:103D700000BF00BF5046FCF77FFA00BF00BF00BF86
:103D800030E000BF00BF00BFFCF772FA824600BF00
:103D900000BF16480078401E144908700846007895
:103DA000A0B914480088002809DD00BF00BF5046B4
:103DB000FCF762FA00BF00BFFFF7BEFA0DE000BFDC
:103DC00000BF5046FCF758FA00BF06E000BF00BF36
:103DD0005046FCF751FA00BF00BF00BF46F62D6009
:103DE000288000BF00BFBDE8FC87000090000020D5
:103DF000E80000205400002010B50446204600F0E2
:103E0000B1FC94F8360000F0040010B92046FFF72A
:103E1000EFF910BD70B504460D46002600BF00BF87
:103E2000FCF726FA064600BF00BF0020288094F861
:103E3000360008287BD2DFE800F0040506071243AD
:103E4000556700BF00BF00BF00BF00BF3046FCF792
:103E500013FA00BF00BF47F25310288072E000BF82
:103E60003B480078401C3A49087000BF00BF30460C
:103E7000FCF702FA00BF00BF00BF14F88A0F401E13
:103E8000207014F88A0928B9002084F836002046EA
:103E9000FFF7B2FF00BF00BF00BFFCF7E9F906461D
:103EA00000BF00BF2A480078401E2949087000BFA3
:103EB00000BF3046FCF7E0F900BF00BF00BF41E0A3
:103EC00014F88A0F401E207014F88A0910B90120D6
:103ED00084F8360000BF00BF3046FCF7CDF900BFC4
:103EE00000BF2FE014F88A0F401E207014F88A09D2
:103EF00010B9022084F8360000BF00BF3046FCF73E
:103F0000BBF900BF00BF1DE014F88A0F401E2070EF
:103F100014F88A0910B9032084F8360000BF00BFE6
:103F20003046FCF7A9F900BF00BF0BE0FFE700BF78
:103F300000BF3046FCF7A0F900BF00BF46F62D6079
:103F4000288070BD00BFFCF711FE00BFF9E700003C
:103F50009000002008B504480068FDF70BFC694696
:103F60000020FDF795F908BDE80000202DE9F84391
:103F70000446884617461D464FF0000900BF00BFA3
:103F800000BFFCF775F9814600BF00BFFE4800780E
:103F9000401CFD49087000BF00BF4846FCF76CF9A3
:103FA00000BF00BF00BF0CB9F848046827640020B8
:103FB000288094F83600082871D2DFE800F0040564
:103FC000EBEC0607EDEE00BF00BF00BF04200128A8
:103FD00004D0022839D004286FD170E0606CFF282B
:103FE00032D100BF00BF00BFFCF742F9814600BFDD
:103FF00000BFE5480078401EE34908700846007895
:10400000A0B9E3480088002809DD00BF00BF48468A
:10401000FCF732F900BF00BFFFF78EF90DE000BFDB
:1040200000BF4846FCF728F900BF06E000BF00BF0C
:104030004846FCF721F900BF00BF00BF46F6C55057
:1040400028800020BDE8F88371E04FF6FF71606CB6
:10405000884233D100BF00BF00BFFCF709F9814699
:1040600000BF00BFC8480078401EC7490870084616
:104070000078A8B9C6480088002809DD00BF00BF45
:104080004846FCF7F9F800BF00BFFFF755F90EE00E
:1040900000BF00BF4846FCF7EFF800BF07E08DE126
:1040A00000BF00BF4846FCF7E7F800BF00BF00BFF5
:1040B00046F6C55028800020C4E737E037E0606C42
:1040C000401C88BB00BF00BF00BFFCF7D1F8814691
:1040D00000BF00BFAC480078401EAB4908700846DE
:1040E0000078A0B9AA480088002809DD00BF00BFF9
:1040F0004846FCF7C1F800BF00BFFFF71DF90DE00F
:1041000000BF00BF4846FCF7B7F800BF06E000BF9D
:1041100000BF4846FCF7B0F800BF00BF00BF46F63E
:10412000C550288000208DE7FFE700E000BF00BFFA
:10413000606C401C6064666C00BF00BF00BFFCF791
:1041400097F8814600BF00BF8F480078401E8E4917
:10415000087008460078A0B98D480088002809DD5D
:1041600000BF00BF4846FCF787F800BF00BFFFF75D
:10417000E3F80DE000BF00BF4846FCF77DF800BF44
:1041800006E000BF00BF4846FCF776F800BF00BF5E
:1041900000BF45E100BF00BF00BF94F8340007280E
:1041A00023D100231A46214618460097FEF7A2FEA7
:1041B000666C00BF00BF00BFFCF75AF8814600BF25
:1041C00000BF71480078401E6F49087000BF00BFF3
:1041D0004846FCF751F800BF00BF00BF08F400409C
:1041E000002801D1FCF7C2FCE7E00420012804D03C
:1041F000022838D004286ED16EE0606CFF2831D1DF
:1042000000BF00BF00BFFCF733F8814600BF00BF0E
:104210005D480078401E5C49087008460078A0B9E7
:104220005B480088002809DD00BF00BF4846FCF756
:1042300023F800BF00BFFFF77FF80DE000BF00BF0D
:104240004846FCF719F800BF06E000BF00BF48462B
:10425000FCF712F800BF00BF00BF46F6C55028802B
:104260000020EFE670E04FF6FF71606C884231D1BC
:1042700000BF00BF00BFFBF7FBFF814600BF00BFD0
:1042800041480078401E4049087008460078A0B9AF
:104290003F480088002809DD00BF00BF4846FBF703
:1042A000EBFF00BF00BFFFF747F80DE000BF00BF06
:1042B0004846FBF7E1FF00BF06E000BF00BF4846ED
:1042C000FBF7DAFF00BF00BF00BF46F6C5502880ED
:1042D0000020B7E638E036E0606C401C88BB00BFC9
:1042E00000BF00BFFBF7C4FF814600BF00BF2648E8
:1042F0000078401E2449087008460078A0B9244878
:104300000088002809DD00BF00BF4846FBF7B4FF66
:1043100000BF00BFFFF710F80DE000BF00BF484628
:10432000FBF7AAFF00BF06E000BF00BF4846FBF74F
:10433000A3FF00BF00BF00BF46F6C5502880002085
:1043400080E6FFE700E000BF00BF606C401C6064D7
:10435000666C00BF00BF00BFFBF78AFF814600BF4D
:1043600000BF09480078401E0749087008460078D9
:10437000D8B907480088002810DD00BF00BF4846B4
:10438000FBF77AFF00BF05E090000020E800002066
:104390005400002000BFFEF7CFFF0DE000BF00BFBC
:1043A0004846FBF769FF00BF06E000BF00BF484674
:1043B000FBF762FF00BF00BF00BF31E000BF00BFDE
:1043C00000BFFBF755FF814600BF00BF16480078CD
:1043D000401E1549087008460078A0B913480088A7
:1043E000002809DD00BF00BF4846FBF745FF00BFBE
:1043F00000BFFEF7A1FF0DE000BF00BF4846FBF77E
:104400003BFF00BF06E000BF00BF4846FBF734FF9C
:1044100000BF00BF00BF46F62D602880002600BF09
:1044200000BF30460EE6000090000020540000203F
:1044300070B504460D46002600BF00BFFBF718FF0D
:10444000064600BF00BF0CB94B4804684A480068E4
:1044500084420ED14948007800280ADD00BF00BF21
:104460003046FBF709FF00BF00BF46F663502880C7
:1044700070BD0020288094F8360008286CD2DFE850
:1044800000F004313F4D5B5C5D5E00BF3B4800784F
:10449000401C3A49087000BF00BF3046FBF7ECFEF5
:1044A00000BF00BF00BF042084F83600012084F85C
:1044B0008A002046FEF712FF00BF00BF00BFFBF7D7
:1044C000D7FE064600BF00BF2C480078401E2B498F
:1044D000087000BF00BF3046FBF7CEFE00BF00BF34
:1044E00000BF44E0052084F83600012084F88A00EB
:1044F00000BF00BF3046FBF7BFFE00BF00BF36E085
:10450000062084F83600012084F88A0000BF00BF2E
:104510003046FBF7B1FE00BF00BF28E0072084F85B
:104520003600012084F88A0000BF00BF3046FBF748
:10453000A3FE00BF00BF1AE000BF00BF00BF94F899
:104540008A00401C84F88A0000BF00BF3046FBF799
:1045500093FE00BF00BF0AE000BF00BF3046FBF77C
:104560008BFE00BF00BF46F62D60288080E700BFAD
:10457000FCF7FCFA00BF7BE7E80000209000002079
:10458000002108E0064A02EBC1000022026082809E
:10459000C2804A1C91B2034A12889142F2DB7047F2
:1045A00060240020F45700082DE9F04F0C46164611
:1045B0001D46042E1ED1DFF8A091D9F80090A4EB7F
:1045C0000909A9F1010313F5803F0DD94FF0000946
:1045D000C0F84C90C0F85090C0F81C9047F27E296B
:1045E000A5F80090BDE8F08FC46403F10109C0F89C
:1045F00050903FE084B3082E25D1D0F8489009EBC5
:104600000407DFF85491D9F80090A7EB0909A9F144
:104610000103A34201D2C76406E0DFF83C91D9F858
:104620000090A144C0F84C90DFF82CA1D0F84C9039
:10463000DAF800A0A9EB0A09C0F85090D0F84C9025
:10464000C0F8489016E0DFF81091D9F80090A14426
:10465000C0F84C9004650DE0FFE74FF00009C0F88A
:104660004C90C0F85090C0F81C9047F27E29A5F8F5
:104670000090B7E7DFF8E4A0BAF800A0D0F84C90BB
:10468000B9FBFAFB0AFB1B991FFA89F8DFF8D090F7
:1046900009EBC802B2F80490B9F1000F0BD14FF04A
:1046A0000009C0F81490C0F8189010604FF001098C
:1046B000A2F804903EE0116834E0DFF89CA0D1F845
:1046C0004C90DAF800A0A9EB0A09C1F85090D0F894
:1046D0005090D1F850A0D1450ED9D1F81490B9F12D
:1046E000000F01D049691DE04FF00009C0F8149097
:1046F00081614861002115E0D1F81890B9F1000FEF
:1047000007D14FF00009C0F818904161886110602E
:1047100007E0D1F818C0C0F818C04161CCF8140007
:10472000886100210029C8D1B2F8049009F101097B
:10473000A2F80490B2F80690B2F804A0D14503DACA
:10474000B2F80490A2F80690C2614FF00009A5F8F3
:10475000009000BF46E70000C8000020F4570008A2
:104760006024002010B5C269BAB100240465146841
:10477000844205D14169116039B100248C6104E0A3
:10478000816943694B6103B199610024446184618B
:10479000C461C4649488641E948010BD002006E047
:1047A000054A02EBC0010022CA80421C90B2034AB3
:1047B00012889042F4DB704760240020F457000810
:1047C0002DE9F05F4FF0000B00BF00BF00BFFBF70B
:1047D0004FFD834600BF00BF71480078401C704900
:1047E000087000BF00BF5846FBF746FD00BF00BF82
:1047F00000BFFBF7C5FE05466A480068401C6949D2
:1048000008600846006868490988B0FBF1F201FBBE
:1048100012001FFA80FA654800EBCA08D8F8004079
:10482000002782E0002C7FD0D4F8149094F8360052
:10483000082875D2DFE800F00408051B063D075084
:1048400000BF00BF00BF6CE05649E06C0968401A29
:1048500020655449E06C0968884206D1002084F83C
:1048600036002046FFF7C8FA00E0012759E04D491D
:10487000E06C0968401A20654A49E06C0968884282
:1048800015D10020E065A4F86000FBF779FE2064F4
:104890002046FEF7F6FA2046FFF7AEFA0020343441
:1048A000A07003206070002004F8340900E00127A4
:1048B00037E03C49E06C0968401A20653949E06CF2
:1048C0000968884206D1042084F836002046FFF7A4
:1048D00049FF00E0012724E03249E06C0968401AF2
:1048E00020653049E06C0968884217D10020E065F6
:1048F000A4F86000FBF744FE20642046FEF7C1FAEE
:104900002046FFF72FFF04203434A070032060708E
:10491000002004F8340902E006E001E0012700E08D
:1049200000BF00BF4C4600E00127002F3FF47AAFE4
:10493000FBF726FE461B1E480068B04201D21C4809
:10494000066000BF00BF00BFFBF792FC834600BFBC
:1049500000BF13480078401E1149087008460078CF
:10496000A0B914480088002809DD00BF00BF5846E0
:10497000FBF782FC00BF00BFFEF7DEFC0DE000BFCE
:1049800000BF5846FBF778FC00BF06E000BF00BF41
:104990005846FBF771FC00BF00BF00BFBDE8F09FA9
:1049A00090000020C8000020F45700086024002078
:1049B000CC000020540000201CB500BF0EE001AB6D
:1049C0006A4600210846FCF7E1FEBDF8040028B95C
:1049D00003480078012801D1FFF7F2FEEFE700005D
:1049E0004900002010B58AB0044600201D49086027
:1049F0001D490860FFF7C4FD1C48006820B947F254
:104A0000122020800AB010BD1948006819490968B1
:104A1000884203D247F213202080F3E7164800783B
:104A20003F2803D347F211202080EBE70B20002121
:104A300005910A46CDE9070406910D4800680F4923
:104A400009680A4B1B68CDE90131CDE903020A4828
:104A5000007800230A4A0BA100900F48FCF7DEFA09
:104A600000BFCFE7C8000020CC000020E4570008BA
:104A7000EC570008D8570008E0570008E85700082E
:104A8000B949000875432F4F532D494949205469AE
:104A9000636B205461736B00C82C002070B58AB022
:104AA00004460020314908603148006840B131486F
:104AB00000682F490968B0FBF1F02F49086006E053
:104AC0002C4800680A21B0FBF1F02B4908602A4805
:104AD00000682A49086000202949086029490860BF
:104AE000002508E0284800EBC5060020B080F080D3
:104AF0003060681C85B2254800888542F2DB244876
:104B0000006820B947F2473020800AB070BD2148C4
:104B1000006821490968884203D247F24830208062
:104B2000F3E71E4800783F2803D347F24630208041
:104B3000EBE70B2000210591CDE90704069108461B
:104B400014490968164A1268114B1B68CDE90132F5
:104B5000CDE90310114800780023124A12A10090F9
:104B60001748FCF75BFA00BFCFE70000D000002039
:104B700000580008DC570008E0000020E400002096
:104B8000DC000020D8000020E8260020145800088F
:104B9000045800080C580008D8570008FC570008B3
:104BA00008580008B94C000875432F4F532D494948
:104BB000492054696D6572205461736B00000000D8
:104BC0008C2D0020F0B50C46022680F82A60012CBE
:104BD00005D12D4F466A3F683E4486610CE0066A67
:104BE0002EB9294F466A3F683E44866104E0264F4D
:104BF000066A3F683E448661244F3F888669B6FB5B
:104C0000F7FC07FB1C66B5B2214E06EBC502166821
:104C100036B90026066146611060012696802CE0B8
:104C2000194F86693F68F61BC661116820E0164F70
:104C30008E693F68F61BCE61C669CF69BE4209D94D
:104C40000E690EB1096913E0002606614161086131
:104C500000210DE04E692EB90026466101614861D0
:104C6000106004E04B6943610161186148610021F3
:104C70000029DCD19688761C9680D6889788BE421B
:104C800001DA9688D680F0BDDC00002014580008B8
:104C9000E8260020002006E0054A02EBC0010022C1
:104CA000CA80421C90B2034A12889042F4DB7047DB
:104CB000E8260020145800081CB500BF53E001ABE3
:104CC0006A4600210846FCF761FD01A8FBF79EFF3C
:104CD000FBF756FC064624480068401C2249086041
:104CE0000846006821490988B0FBF1F201FB120077
:104CF0001FFA80FA1E4800EBCA08D8F800404FF0AF
:104D0000000B21E0F4B1D4F810901749A0690968AC
:104D1000884214D1204600F02FF8208D022804D1BB
:104D200001212046FFF74EFF02E0032084F82A000D
:104D3000A56815B12046E168A8474C4604E04FF04D
:104D4000010B01E04FF0010BBBF1000FDAD0FBF7D4
:104D500017FC871B01A8FBF7C5FF06480068B8428F
:104D600001D204480760AAE7DC00002014580008BC
:104D7000E8260020D8000020F0B5114E368885695D
:104D8000B5FBF6F706FB1755ACB20E4D05EBC402AA
:104D90001568854205D10169116039B100254D6161
:104DA00004E0416903690B6103B15961012580F891
:104DB0002A5000250561456195886D1E9580F0BDDE
:104DC00014580008E826002029B1064A1268024358
:104DD000044B1A6004E0034A12688243014B1A60D4
:104DE000704700003038024029B1064A1268024379
:104DF000044B1A6004E0034A12688243014B1A60B4
:104E00007047000044380240F0B500210022002421
:104E1000022500260223324F3F6807F00C0121B122
:104E2000042905D0082937D105E02E4F076036E068
:104E30002D4F076033E02A4F3F1F3F68C7F380566E
:104E4000274F3F1F3F6807F03F036EB1264FB7FB68
:104E5000F3F7DFF88CC0ACF1040CDCF800C0CCF345
:104E6000881C07FB0CF40CE01E4FB7FBF3F7DFF8D0
:104E700070C0ACF1040CDCF800C0CCF3881C07FB5C
:104E80000CF4174F3F1F3F68C7F301477F1C7D009D
:104E9000B4FBF5F7076002E0124F076000BF00BFE8
:104EA0000F4F3F6807F0F0010909104F7A5C07685F
:104EB000D74047600A4F3F6807F4E051890A0B4F1B
:104EC0007A5C4768D7408760054F3F6807F46041C8
:104ED000490B064F7A5C4768D740C760F0BD0000B9
:104EE000083802400024F40040787D0100000020D2
:104EF000704700000CB50020019000903448006815
:104F000040F480303249086000BF3148006800F446
:104F1000003000900198401C0190009818B9019849
:104F2000B0F5A04FF1D12A48006800F4003010B16C
:104F30000120009001E0002000900098012846D157
:104F400023484030006840F08050214940310860DB
:104F50002048006840F440401E4908601C48083062
:104F600000681B49083108600846006840F40040AA
:104F700008600846006840F4A05008601648091F01
:104F80000860081F006840F08070091F086000BFBB
:104F90000F48006800F000700028F9D040F205705A
:104FA0000E4908600A480830006820F003000849EC
:104FB000083108600846006840F00200086000BF41
:104FC00003480830006800F00C000828F8D10CBD38
:104FD000003802400070004019544007003C024075
:104FE000042808D14FF0E021096941F004014FF095
:104FF000E022116107E04FF0E021096921F004018E
:105000004FF0E0221161704710B505480078012883
:1050100005D1FBF727FDFDF753F8FBF739FD10BD70
:105020004900002010B51548006840F4700013498D
:1050300008601348006840F0010011490860002032
:105040000F49083108600E4800680E4908400C49B5
:1050500008600D48091D0860081F006820F48020C2
:10506000091F0860002006490C310860FFF742FF65
:105070004FF0006001498039086010BD88ED00E004
:1050800000380240FFFFF6FE103000240EB500BFCE
:1050900012E00A480068C0430949C1F8840209A027
:1050A000FBF7FEF802A800214FF4FA730A46CDE997
:1050B00000100846FCF70CFFEBE70000848240423A
:1050C000008040425461736B310D0A000EB500BF81
:1050D00014E00BA0FBF7E4F802A8002304220AA1C5
:1050E00000900A48FCF7CAFA02A800214FF4FA73AC
:1050F0000A46CDE900100846FCF7EAFEE9E70000A1
:105100005461736B320D0A00426565000C1000207B
:105110001FB513E00AA0FBF7C3F803A802AB01AA6E
:10512000002100900846FCF7A1F904460AA1204698
:10513000FBF7C2F810B909A0FBF7B2F8EAE70000E4
:105140005461736B5F3320457865637574696F6E66
:105150002E2E2E0D0A000000426565005461736B0F
:105160005F3320446F6E65210D0A000010B5FBF718
:1051700079FC40F225511E4800F055F810B31C4848
:1051800000F00AF9C4B21B48008800F40040C8B916
:105190001848008800F4804060B10A2C03D0002039
:1051A0001449088020E01348008840F40040114969
:1051B000088019E00D2C06D10E48008840F480408C
:1051C0000C49088010E00B480088C0F30D000A4924
:1051D0000C5408480088401C06490880084600888E
:1051E000C72801DD00200880FBF752FC10BD00003D
:1051F0000010014018000020F400002001F40072AB
:10520000B2F5007F00D100BFCA430280704721B1D0
:10521000828942F40052828104E082894DF6FF7354
:105220001A408281704770B5024600240023002591
:10523000002040F66A16B14200D100BFC1F342150A
:1052400001F01F03012606FA03F3012D02D196890E
:10525000334006E0022D02D1168A334001E0968ADF
:1052600033400C12012606FA04F41688344013B1B8
:105270000CB1012000E0002070BDF0B50346002411
:1052800000260025002040F66A17B94200D100BF71
:105290001846C1F3421401F01F06012707FA06F56C
:1052A000012C01D10C3004E0022C01D1103000E0BF
:1052B00014301AB107682F43076002E00768AF4354
:1052C0000760F0BD2DE9FF4705460E460024A146C4
:1052D00000BFA046B08900B100BF2C8A24F440541E
:1052E000F08804432C82AC8941F20C608443B0887E
:1052F00031890843718908430443AC81AC8A24F4A2
:105300004074B0890443AC826846FFF77DFD2048B5
:10531000854202D01F48854202D1DDF80C9001E0A1
:10532000DDF80890A88900F4004040B109EBC900FD
:1053300000EB091031684900B0FBF1F707E009EB19
:10534000C90000EB091031688900B0FBF1F7642057
:10535000B7FBF0F004012009642101FB1078A88953
:1053600000F4004040B1322000EBC800B0FBF1F087
:1053700000F00700044308E0322000EB081064212D
:10538000B0FBF1F000F00F0004432C81BDE8FF8773
:10539000001001400014014001468888C0F3080055
:1053A000704700BFFEE700BF7047000070B50446BD
:1053B0006FF00400FFF714FE2046E11704EB517173
:1053C000C1F3C701114A1170E11704EB5171CD10FF
:1053D0000F4800680F49B1FBF0F045430C480068E6
:1053E0004FF47A71B1FBF0F00B4908804FF0E020E8
:1053F000006940F002004FF0E02108610846456175
:10540000006940F00100086170BD0000100000203C
:10541000DC57000840420F001200002000BF054A80
:10542000128802F04002002AF9D0C2B2014B9A80E1
:1054300070470000001001408AB00024A820FFF748
:10544000B5FF4FF4A060FBF7A1F94FF4E13000F095
:1054500035F9FBF70BF909A8FBF72AFA00BF00BFE3
:1054600000BFFAF705FF044600BF00BF2B480078D5
:10547000401C2A49087000BF00BF2046FAF7FCFE16
:1054800000BF00BF00BF09A8032100220592CDE99B
:105490000621089010464FF400713322204BCDE9CD
:1054A0000132CDE90310032000231E4A1EA1009003
:1054B0002048FBF7B3FD00BF00BF00BFFAF7D8FEDE
:1054C000044600BF00BF15480078401E134908700D
:1054D00008460078A0B918480088002809DD00BFF8
:1054E00000BF2046FAF7C8FE00BF00BFFDF724FF4B
:1054F0000DE000BF00BF2046FAF7BEFE00BF06E089
:1055000000BF00BF2046FAF7B7FE00BF00BF00BFD4
:1055100009A8FBF731FC00BFFEE700009000002067
:10552000840200203D550008737461727420746118
:10553000736B0000C00100205400002030B58BB018
:105540000446002500BFFAF7CEFF0AA8FBF7E4FCEB
:105550000AAA01210846FBF793FB00BF00BF00BF6A
:10556000FAF786FE054600BF00BF42480078401C9F
:105570004049087000BF00BF2846FAF77DFE00BF13
:1055800000BF00BF0AA8032100220592CDE9062131
:105590000890104680210C22374BCDE90132CDE92D
:1055A000031004200023354A35A100903648FBF74C
:1055B00035FD0AA8032100220592CDE906210890B5
:1055C000104680210C22314BCDE90132CDE9031088
:1055D000052000232E4A2FA100903048FBF71EFD26
:1055E0000AA8032100220592CDE906210890104661
:1055F00080210C222A4BCDE90132CDE9031006208F
:105600000023284A28A100902948FBF707FD0AA992
:105610002848FEF70DFF00BF00BF00BFFAF728FEC5
:10562000054600BF00BF13480078401E11490870AE
:1056300008460078A0B920480088002809DD00BF8E
:1056400000BF2846FAF718FE00BF00BFFDF774FE42
:105650000DE000BF00BF2846FAF70EFE00BF06E0CF
:1056600000BF00BF2846FAF707FE00BF00BF00BF1B
:105670000BB030BD90000020480B00208D5000087A
:105680007461736B31000000840A00200C0E00204E
:10569000CD5000087461736B32000000480D00208B
:1056A000D0100020115100087461736B33000000AA
:1056B0000C100020C00100205400002010B588B05C
:1056C000044601210846FFF77FFB01211020FFF768
:1056D0008BFB072209212448FAF7A1FF07220A21A0
:1056E0002148FAF79CFF4FF4C060069002208DF825
:1056F0001C008DF81D0000208DF81E0001208DF883
:105700001F0006A91848FAF742FF02940020ADF8DE
:105710000C00ADF80E00ADF81000ADF814000C2030
:10572000ADF8120002A91148FFF7CCFD01210F4886
:10573000FFF76DFD40210D48FFF760FD012240F2AB
:1057400025510A48FFF799FD25208DF80400032014
:105750008DF805008DF8060001208DF8070001A8DE
:10576000FAF7D8FF08B010BD000002400010014059
:105770004FF04070E1EE100A70470000E012002088
:105780000C0000008000000000020000E014002077
:105790000A00000040010000201600200C0000005C
:1057A000800000000002000020180020800000009F
:1057B000000200006400000040060000201A0020E3
:1057C0003E0000000A000000602000200C000000E5
:1057D000800000000002000040000000C80000003F
:1057E00001000000602200200C000000800000008A
:1057F000000200001100000088000000020000000C
:1058000064000000E82400200C000000800000007C
:105810000002000011000000880000009014000049
:10582000010001017856341201010000000000005F
:105830000000000000000000000000000000000068
:105840000000000000000000000000000000000058
:1058500000000000010101002800040020000100F8
:105860000000000000000000000000000000000038
:105870000000000000000000000000000000000028
:1058800001002000010010000C00100000000000CA
:105890000000000000000000000000000000000008
:1058A00000000000000000000000000000000000F8
:1058B0000000000000000000010101002C000100B8
:1058C00020000C0020004000080004000000000040
:1058D00000000000000000000000000000000000C8
:1058E00000000000000000000000000000000000B8
:1058F00000000000000000000000000001010101A4
:105900003000010000000000000000000000000066
:105910000000000000000000000000000000000087
:105920000000000000000000000000000101010173
:1059300028000C0000030000040101010101010125
:1059400001000101C4000800010100000000000086
:105950000000000000000000000000000000000047
:105960000000000000000000000000000000000037
:105970000000000000000000000000000000000027
:105980000101340008005C7696070000AC5900085D
:1059900000000020F4000000C4010008A05A000824
:1059A000F4000020BC330000E0010008000000000B
:1059B00001020304010203040607080900000000B5
:1059C00000000000000000000000000000000000D7
:1059D00000000000000000000000000000000000C7
:1059E00000000000000000000000000000000000B7
:1059F00000000000000000000000000000000000A7
:105A00000000000000000000000000000000000096
:105A10000000000000000000000000000000000086
:105A20000000000000000000000000000000000076
:105A30000000000000000000000000000000000066
:105A40000000000000000000000000000000000056
:105A50000000000000000000000000000000000046
:105A60000000000000000000000000000000000036
:105A70000000000000000000000000000000000026
:105A80000000000000000000000000000000000016
:105A90000000000000000000000000000000000006
:040000050800018965
:00000001FF
